:020000040800F2
:1000000000000220E17500082D7400082F7400081C
:1000100031740008337400083574000800000000D3
:10002000000000000000000000000000377400081D
:1000300039740008000000003B7400083D7400089B
:1000400031760008317600083176000831760008F4
:1000500031760008317600083176000831760008E4
:1000600031760008317600083176000845740008C2
:10007000557400083176000865740008757400082E
:1000800085740008957400083176000800000000AF
:1000900000000000000000000000000031760008B1
:1000A0003176000831760008317600083176000894
:1000B00031760008A5740008B57400083176000890
:1000C000317600083176000831760008C5740008E2
:1000D000D574000831760008E574000800000000BF
:1000E0003176000831760008317600080000000003
:1000F0000000000000000000000000003176000851
:10010000000000003176000831760008F574000820
:1001100000000000000000000000000000000000DF
:10012000057500083176000831760008157500085D
:100130003176000800000000000000000000000010
:100140000000000000000000000000003176000800
:1001500031760008317600083176000831760008E3
:10016000257500083575000800000000000000003B
:10017000000000000000000000000000000000007F
:1001800000000000317600080000000000000000C0
:080190004575000831760008F6
:1001A00010B5054C237833B9044B13B10448AFF3B1
:1001B00000800123237010BDF0010020000000002A
:1001C0001CDF000808B5034B1BB103490348AFF31C
:1001D000008008BD00000000F40100201CDF0008C2
:1001E0004B1C012B98BF70472DE9F003911C9B0815
:1001F000B1F80480B1F802900A8831F802CC80444A
:10020000814402448444D9F80070D8F8006015682D
:10021000DCF80040C9F80060C8F80070CCF8005065
:100220001460D9F80470D8F804605568DCF804400C
:10023000C9F80460C8F80470CCF804505460083160
:10024000013BD5D1BDE8F00370474B1C012B98BF93
:1002500070472DE9F003911C9B08B1F80480B1F8B8
:1002600002900A8831F802CC00EB580800EB5909DB
:1002700000EB520200EB5C0CD9F80070D8F800607B
:100280001568DCF80040C9F80060C8F80070CCF8C8
:10029000005014600831013BDFD1BDE8F003704726
:1002A00081F0004102E000BF83F0004330B54FEA27
:1002B00041044FEA430594EA050F08BF90EA020F94
:1002C0001FBF54EA000C55EA020C7FEA645C7FEA27
:1002D000655C00F0E2804FEA5454D4EB5555B8BF4A
:1002E0006D420CDD2C4480EA020281EA030382EABB
:1002F000000083EA010180EA020281EA0303362D4D
:1003000088BF30BD11F0004F4FEA01314FF4801C1F
:100310004CEA113102D0404261EB410113F0004F31
:100320004FEA03334CEA133302D0524263EB4303E8
:1003300094EA050F00F0A780A4F10104D5F1200E86
:100340000DDB02FA0EFC22FA05F2801841F10001E1
:1003500003FA0EF2801843FA05F359410EE0A5F1B5
:1003600020050EF1200E012A03FA0EFC28BF4CF0E6
:10037000020C43FA05F3C01851EBE37101F000459C
:1003800007D54FF0000EDCF1000C7EEB00006EEBA9
:100390000101B1F5801F1BD3B1F5001F0CD3490833
:1003A0005FEA30004FEA3C0C04F101044FEA44528A
:1003B00012F5800F80F09A80BCF1004F08BF5FEA11
:1003C000500C50F1000041EB045141EA050130BDF1
:1003D0005FEA4C0C404141EB010111F4801FA4F194
:1003E0000104E9D191F0000F04BF01460020B1FAE9
:1003F00081F308BF2033A3F10B03B3F120020CDA21
:100400000C3208DD02F1140CC2F10C0201FA0CF0FE
:1004100021FA02F10CE002F11402D8BFC2F1200C63
:1004200001FA02F120FA0CFCDCBF41EA0C01904019
:10043000E41AA2BF01EB0451294330BD6FEA040462
:100440001F3C1CDA0C340EDC04F11404C4F120024D
:1004500020FA04F001FA02F340EA030021FA04F35F
:1004600045EA030130BDC4F10C04C4F1200220FAB6
:1004700002F001FA04F340EA0300294630BD21FAF4
:1004800004F0294630BD94F0000F83F4801306BFBA
:1004900081F480110134013D4EE77FEA645C18BFAE
:1004A0007FEA655C29D094EA050F08BF90EA020F45
:1004B00005D054EA000C04BF1946104630BD91EA3D
:1004C000030F1EBF0021002030BD5FEA545C05D140
:1004D0004000494128BF41F0004130BD14F580047F
:1004E0003CBF01F5801130BD01F0004545F0FE41F3
:1004F00041F470014FF0000030BD7FEA645C1ABF28
:10050000194610467FEA655C1CBF0B46024650EA5E
:10051000013406BF52EA033591EA030F41F400218A
:1005200030BD00BF90F0000F04BF0021704730B510
:100530004FF4806404F132044FF000054FF00001E5
:1005400050E700BF90F0000F04BF0021704730B5A6
:100550004FF4806404F1320410F0004548BF40427B
:100560004FF000013EE700BF42004FEAE2014FEAD0
:1005700031014FEA02701FBF12F07F4393F07F4FAB
:1005800081F06051704732F07F4208BF704793F0AE
:100590007F4F04BF41F40021704730B54FF46074C1
:1005A00001F0004521F000411CE700BF50EA0102C4
:1005B00008BF704730B54FF000050AE050EA01026D
:1005C00008BF704730B511F0004502D5404261EBDD
:1005D00041014FF4806404F132045FEA915C3FF41E
:1005E000D8AE4FF003025FEADC0C18BF03325FEABB
:1005F000DC0C18BF033202EBDC02C2F1200300FA6C
:1006000003FC20FA02F001FA03FE40EA0E0021FA90
:1006100002F11444BDE600BF70B54FF0FF0C4CF47E
:10062000E06C1CEA11541DBF1CEA135594EA0C0F30
:1006300095EA0C0F00F0DEF82C4481EA030621EA6B
:100640004C5123EA4C5350EA013518BF52EA0335A6
:1006500041F4801143F4801338D0A0FB02CE4FF058
:100660000005E1FB02E506F00042E0FB03E54FF088
:100670000006E1FB03569CF0000F18BF4EF0010E80
:10068000A4F1FF04B6F5007F64F5407404D25FEA7C
:100690004E0E6D4146EB060642EAC62141EA55512F
:1006A0004FEAC52040EA5E504FEACE2EB4F1FD0C71
:1006B00088BFBCF5E06F1ED8BEF1004F08BF5FEAEF
:1006C000500E50F1000041EB045170BD06F00046A1
:1006D00046EA010140EA020081EA0301B4EB5C044E
:1006E000C2BFD4EB0C0541EA045170BD41F4801146
:1006F0004FF0000E013C00F3AB8014F1360FDEBF6B
:10070000002001F0004170BDC4F10004203C35DA46
:100710000C341BDC04F11404C4F1200500FA05F3C9
:1007200020FA04F001FA05F240EA020001F000426A
:1007300021F0004110EBD37021FA04F642EB0601E0
:100740005EEA430E08BF20EAD37070BDC4F10C040A
:10075000C4F1200500FA04F320FA05F001FA04F2CE
:1007600040EA020001F0004110EBD37041F10001BA
:100770005EEA430E08BF20EAD37070BDC4F12005C5
:1007800000FA05F24EEA020E20FA04F301FA05F22D
:1007900043EA020321FA04F001F0004121FA04F2D5
:1007A00020EA020000EBD3705EEA430E08BF20EAA5
:1007B000D37070BD94F0000F0FD101F000464000DF
:1007C00041EB010111F4801F08BF013CF7D041EA61
:1007D000060195F0000F18BF704703F00046520065
:1007E00043EB030313F4801F08BF013DF7D043EA36
:1007F0000603704794EA0C0F0CEA135518BF95EAEC
:100800000C0F0CD050EA410618BF52EA4306D1D172
:1008100081EA030101F000414FF0000070BD50EA91
:10082000410606BF1046194652EA430619D094EA1B
:100830000C0F02D150EA013613D195EA0C0F05D105
:1008400052EA03361CBF104619460AD181EA030159
:1008500001F0004141F0FE4141F470014FF0000011
:1008600070BD41F0FE4141F4780170BD70B54FF0AC
:10087000FF0C4CF4E06C1CEA11541DBF1CEA13552C
:1008800094EA0C0F95EA0C0F00F0A7F8A4EB05040E
:1008900081EA030E52EA03354FEA013100F0888005
:1008A0004FEA03334FF0805545EA131343EA1263CE
:1008B0004FEA022245EA111545EA10654FEA002683
:1008C0000EF000419D4208BF964244F1FD0404F53C
:1008D000407402D25B084FEA3202B61A65EB030598
:1008E0005B084FEA32024FF480104FF4002CB6EB55
:1008F000020E75EB030E22BFB61A754640EA0C00D5
:100900005B084FEA3202B6EB020E75EB030E22BF14
:10091000B61A754640EA5C005B084FEA3202B6EB55
:10092000020E75EB030E22BFB61A754640EA9C0014
:100930005B084FEA3202B6EB020E75EB030E22BFE4
:10094000B61A754640EADC0055EA060E18D04FEAA2
:10095000051545EA16754FEA06164FEAC30343EA42
:1009600052734FEAC2025FEA1C1CC0D111F4801F0F
:100970000BD141EA00014FF000004FF0004CB6E708
:1009800011F4801F04BF01430020B4F1FD0C88BFA7
:10099000BCF5E06F3FF6AFAEB5EB030C04BFB6EBB2
:1009A000020C5FEA500C50F1000041EB045170BDA5
:1009B0000EF0004E4EEA113114EB5C04C2BFD4EBD2
:1009C0000C0541EA045170BD41F480114FF0000E56
:1009D000013C90E645EA060E8DE60CEA135594EAD2
:1009E0000C0F08BF95EA0C0F3FF43BAF94EA0C0FD5
:1009F0000AD150EA01347FF434AF95EA0C0F7FF44A
:100A000025AF104619462CE795EA0C0F06D152EA9D
:100A100003353FF4FDAE1046194622E750EA410681
:100A200018BF52EA43067FF4C5AE50EA41047FF492
:100A30000DAF52EA43057FF4EBAE12E74FF0FF3CF7
:100A400006E000BF4FF0010C02E000BF4FF0010CC8
:100A50004DF804CD4FEA410C7FEA6C5C4FEA430C41
:100A600018BF7FEA6C5C1BD001B050EA410C0CBF90
:100A700052EA430C91EA030F02BF90EA020F0020F2
:100A8000704710F1000F91EA030F58BF994208BF59
:100A900090422CBFD8176FEAE37040F00100704716
:100AA0004FEA410C7FEA6C5C02D150EA013C07D16D
:100AB0004FEA430C7FEA6C5CD6D152EA033CD3D0B8
:100AC0005DF8040B704700BF8446104662468C46B2
:100AD0001946634600E000BF01B5FFF7B7FF0028E5
:100AE00048BF10F1000F01BD4DF808EDFFF7F4FF0E
:100AF0000CBF012000205DF808FB00BF4DF808ED99
:100B0000FFF7EAFF34BF012000205DF808FB00BFBB
:100B10004DF808EDFFF7E0FF94BF012000205DF8DD
:100B200008FB00BF4DF808EDFFF7CEFF94BF012092
:100B300000205DF808FB00BF4DF808EDFFF7C4FF8B
:100B400034BF012000205DF808FB00BF4FEA410CD4
:100B50007FEA6C5C02D150EA013C0AD14FEA430CB7
:100B60007FEA6C5C02D152EA033C02D14FF00000F4
:100B700070474FF0010070474FEA410212F5001232
:100B800015D211D56FF47873B3EB625212D94FEAD4
:100B9000C12343F0004343EA505311F0004F23FABE
:100BA00002F018BF404270474FF00000704750EA13
:100BB000013005D111F0004008BF6FF000407047D0
:100BC0004FF00000704700BF4A0011D212F500122A
:100BD00011D20DD56FF47873B3EB62520ED44FEA95
:100BE000C12343F0004343EA505323FA02F0704715
:100BF0004FF00000704750EA013002D14FF0FF3053
:100C000070474FF0000070474FEA4102B2F1E043F5
:100C100024BFB3F5001CDCF1FE5C0DD901F0004CE3
:100C20004FEAC0024CEA5070B2F1004F40EB830033
:100C300008BF20F00100704711F0804F21D113F15F
:100C40003872BCBF01F00040704741F480114FEA98
:100C50005252C2F11802C2F1200C10FA0CF320FA21
:100C600002F018BF40F001004FEAC1234FEAD3233E
:100C700003FA0CFC40EA0C0023FA02F34FEA4303A8
:100C8000CCE77FEA625307D150EA01331EBF4FF031
:100C9000FE4040F44000704701F0004040F0FE404C
:100CA00040F40000704700BF80F0004002E000BF49
:100CB00081F0004142001FBF5FEA410392EA030F47
:100CC0007FEA226C7FEA236C6AD04FEA1262D2EB91
:100CD0001363C1BFD218414048404140B8BF5B4296
:100CE000192B88BF704710F0004F40F4000020F02F
:100CF0007F4018BF404211F0004F41F4000121F045
:100D00007F4118BF494292EA030F3FD0A2F101028E
:100D100041FA03FC10EB0C00C3F1200301FA03F1CC
:100D200000F0004302D5494260EB4000B0F5000FEF
:100D300013D3B0F1807F06D340084FEA310102F1AE
:100D40000102FE2A51D2B1F1004F40EBC25008BF60
:100D500020F0010040EA03007047490040EB00002A
:100D600010F4000FA2F10102EDD1B0FA80FCACF159
:100D7000080CB2EB0C0200FA0CF0AABF00EBC25058
:100D800052421843BCBFD0401843704792F0000F46
:100D900081F4000106BF80F400000132013BB5E799
:100DA0004FEA41037FEA226C18BF7FEA236C21D00F
:100DB00092EA030F04D092F0000F08BF0846704774
:100DC00090EA010F1CBF0020704712F07F4F04D142
:100DD000400028BF40F00040704712F100723CBF55
:100DE00000F50000704700F0004343F0FE4040F47F
:100DF000000070477FEA226216BF08467FEA23633D
:100E00000146420206BF5FEA412390EA010F40F427
:100E1000800070474FF0000304E000BF10F0004373
:100E200048BF40425FEA000C08BF704743F096435A
:100E300001464FF000001CE050EA010208BF704775
:100E40004FF000030AE000BF50EA010208BF7047FC
:100E500011F0004302D5404261EB41015FEA010C11
:100E600002BF84460146002043F0B64308BFA3F109
:100E70008053A3F50003BCFA8CF2083AA3EBC253EB
:100E800010DB01FA02FC634400FA02FCC2F120020A
:100E9000BCF1004F20FA02F243EB020008BF20F041
:100EA0000100704702F1200201FA02FCC2F12002A7
:100EB00050EA4C0021FA02F243EB020008BF20EA9C
:100EC000DC7070474FF0FF0C1CEAD0521EBF1CEACA
:100ED000D15392EA0C0F93EA0C0F6FD01A4480EAB8
:100EE000010C400218BF5FEA41211ED04FF00063A1
:100EF00043EA501043EA5111A0FB01310CF00040CD
:100F0000B1F5000F3EBF490041EAD3715B0040EAF2
:100F1000010062F17F02FD2A1DD8B3F1004F40EBC2
:100F2000C25008BF20F00100704790F0000F0CF095
:100F3000004C08BF49024CEA502040EA51207F3A59
:100F4000C2BFD2F1FF0340EAC250704740F4000034
:100F50004FF00003013A5DDC12F1190FDCBF00F025
:100F600000407047C2F10002410021FA02F1C2F1D3
:100F7000200200FA02FC5FEA310040F1000053EA6F
:100F80004C0308BF20EADC70704792F0000F00F0BD
:100F9000004C02BF400010F4000F013AF9D040EAC3
:100FA0000C0093F0000F01F0004C02BF490011F457
:100FB000000F013BF9D041EA0C018FE70CEAD15355
:100FC00092EA0C0F18BF93EA0C0F0AD030F0004CD5
:100FD00018BF31F0004CD8D180EA010000F0004089
:100FE000704790F0000F17BF90F0004F084691F047
:100FF000000F91F0004F14D092EA0C0F01D1420281
:101000000FD193EA0C0F03D14B0218BF084608D149
:1010100080EA010000F0004040F0FE4040F4000093
:10102000704740F0FE4040F4400070474FF0FF0C26
:101030001CEAD0521EBF1CEAD15392EA0C0F93EA6D
:101040000C0F69D0A2EB030280EA010C49024FEABF
:10105000402037D04FF0805343EA111143EA101378
:101060000CF000408B4238BF5B0042F17D024FF430
:10107000000C8B4224BF5B1A40EA0C00B3EB510F0B
:1010800024BFA3EB510340EA5C00B3EB910F24BFF4
:10109000A3EB910340EA9C00B3EBD10F24BFA3EB79
:1010A000D10340EADC001B0118BF5FEA1C1CE0D141
:1010B000FD2A3FF650AF8B4240EBC25008BF20F0F4
:1010C000010070470CF0004C4CEA50207F32C2BF48
:1010D000D2F1FF0340EAC250704740F400004FF0E5
:1010E0000003013A37E792F0000F00F0004C02BF16
:1010F000400010F4000F013AF9D040EA0C0093F0E0
:10110000000F01F0004C02BF490011F4000F013B39
:10111000F9D041EA0C0195E70CEAD15392EA0C0FA1
:1011200008D142027FF47DAF93EA0C0F7FF470AFD9
:10113000084676E793EA0C0F04D14B023FF44CAF1C
:1011400008466EE730F0004C18BF31F0004CCAD1B1
:1011500030F000427FF45CAF31F000437FF43CAFED
:101160005FE700BF4FF0FF3C06E000BF4FF0010C0F
:1011700002E000BF4FF0010C4DF804CD4FEA4002F1
:101180004FEA41037FEA226C18BF7FEA236C11D03B
:1011900001B052EA530C18BF90EA010F58BFB2EBEE
:1011A000030088BFC81738BF6FEAE17018BF40F06E
:1011B000010070477FEA226C02D15FEA402C05D122
:1011C0007FEA236CE4D15FEA412CE1D05DF8040BA7
:1011D000704700BF844608466146FFE70FB5FFF73A
:1011E000C9FF002848BF10F1000F0FBD4DF808EDF2
:1011F000FFF7F4FF0CBF012000205DF808FB00BFE3
:101200004DF808EDFFF7EAFF34BF012000205DF83C
:1012100008FB00BF4DF808EDFFF7E0FF94BF012089
:1012200000205DF808FB00BF4DF808EDFFF7D2FF86
:1012300094BF012000205DF808FB00BF4DF808EDC9
:10124000FFF7C8FF34BF012000205DF808FB00BF96
:101250004FEA4002B2F1FE4F0FD34FF09E03B3EBC3
:1012600012620DD94FEA002343F0004310F0004F03
:1012700023FA02F018BF404270474FF00000704759
:1012800012F1610F01D1420205D110F0004008BFF8
:101290006FF0004070474FF00000704742000ED2E0
:1012A000B2F1FE4F0BD34FF09E03B3EB126209D4A1
:1012B0004FEA002343F0004323FA02F070474FF057
:1012C0000000704712F1610F01D1420202D14FF0CC
:1012D000FF3070474FF00000704700BF53B94AB964
:1012E000002908BF00281CBF4FF0FF314FF0FF302E
:1012F00000F072B9ADF1080C6DE904CE00F006F80B
:10130000DDF804E0DDE9022304B070472DE9F04781
:10131000089E04468846002B4BD18A42154667D961
:10132000B2FA82F24AB1C2F1200701FA02F320FABE
:1013300007F7954047EA030894404FEA154E230CFF
:10134000B8FBFEF71FFA85FC0EFB178843EA08433B
:1013500007FB0CF1994209D9EB1807F1FF3080F037
:101360001B81994240F21881023F2B445B1AA4B2C0
:10137000B3FBFEF00EFB103344EA034400FB0CFC0D
:10138000A44509D92C1900F1FF3380F00781A44549
:1013900040F2048102382C4440EA0740A4EB0C04DC
:1013A00000271EB1D4400023C6E900433946BDE8FA
:1013B000F0878B4209D9002E00F0EB800027C6E9A8
:1013C000000138463946BDE8F087B3FA83F7002FAD
:1013D00047D18B4202D3824200F2FA80841A61EB39
:1013E000030301209846002EE0D0C6E90048DDE75F
:1013F00002B9FFDEB2FA82F2002A40F08F80491B68
:101400004FEA154E1FFA85F80127B1FBFEFC230CAD
:101410000EFB1C1143EA014308FB0CF1994207D96A
:10142000EB180CF1FF3002D2994200F2CD808446D5
:10143000591AA3B2B1FBFEF00EFB101443EA0444A8
:1014400008FB00F8A04507D92C1900F1FF3302D2A0
:10145000A04500F2B6801846A4EB080440EA0C4010
:101460009FE7C7F1200CBB4022FA0CFE4EEA030EA8
:1014700001FA07F420FA0CF521FA0CF34FEA1E48A2
:101480002543B3FBF8F92C0C08FB19331FFA8EFA2D
:1014900044EA034309FB0AF49C4202FA07F200FA09
:1014A00007F10BD91EEB030309F1FF3080F08780B1
:1014B0009C4240F28480A9F1020973441B1BADB227
:1014C000B3FBF8F008FB103345EA034400FB0AFACB
:1014D000A24508D91EEB040400F1FF336BD2A245EC
:1014E00069D90238744440EA0940A0FB0289A4EBA0
:1014F0000A044C45C2464B4654D351D0002E69D005
:10150000B1EB0A0564EB030404FA0CFCFD40FC405B
:101510004CEA0505C6E90054002747E7C2F120035D
:1015200020FA03F7954001FA02F021FA03F34FEA9B
:10153000154E3843010CB3FBFEF71FFA85F80EFB7E
:10154000173341EA034107FB08F38B4204FA02F424
:1015500007D9691807F1FF3C2FD28B422DD9023FE2
:101560002944CB1A81B2B3FBFEF00EFB103341EAE3
:10157000034100FB08F38B4207D9691800F1FF3CD7
:1015800017D28B4215D902382944C91A40EA0747B5
:101590003BE73746304609E70746E7E61846FBE6ED
:1015A0004145ABD2B8EB020A69EB0E020138134693
:1015B000A4E76046E9E7184695E76746D1E7814624
:1015C0007CE702382C4447E7ACF1020C2B442FE7B0
:1015D000384608E73746E9E6704700BF034613F888
:1015E000012B002AFBD1181A0138704700000000B7
:1015F00001F0FF01102A2BDB10F0070F08D010F8C4
:10160000013B013A8B422DD010F0070F42B3F6D1C7
:10161000F0B441EA012141EA014122F007047FF0E0
:1016200000070023F0E80256083C85EA010586EA37
:10163000010685FA47F5A3FA87F586FA47F6A5FA73
:1016400087F68EB9EED1F0BC01F0FF0102F007027F
:1016500032B110F8013B013A83EA010313B1F8D12A
:101660000020704701387047002D06BF354603380B
:10167000073815F0010F07D1013015F4807F02BF44
:10168000013015F4C03F0130F0BC0138704700BF95
:1016900010B504460E4B18784FF47A73B3FBF0F391
:1016A0000C4A1068B0FBF3F000F060FB68B90F2C37
:1016B00001D901200AE0002221464FF0FF3000F05E
:1016C00001FB054B1C60002000E0012010BD00BFA5
:1016D00000000020180000200400002008B50B4B7B
:1016E0001A6842F400721A601A6842F480621A6042
:1016F0001A6842F480721A60032000F0D1FA0020C8
:10170000FFF7C6FF05F0F2FA002008BD003C0240DA
:10171000034A1168034B1B780B441360704700BFEA
:101720002818002000000020014B1868704700BFF7
:101730002818002038B50446FFF7F6FF0546B4F137
:10174000FF3F02D0044B1B781C44FFF7EDFF401B0A
:10175000A042FAD338BD00BF000000204A4B5A68AF
:1017600022F440325A605A6841680A435A6002685B
:10177000536823F48073536002685368016943EA35
:10178000012353600268536823F04073536002687A
:10179000536881680B4353600268936823F40063C5
:1017A000936002689368C1680B439360826A374B09
:1017B0009A424BD00268936823F07063936002688A
:1017C0009368816A0B4393600268936823F04053E7
:1017D000936002689368C16A0B43936002689368E0
:1017E00023F00203936002689368017E43EA410399
:1017F000936090F82030002B33D10268536823F4B3
:10180000006353600268D36A23F47003D3620168F3
:10181000CB6AC269013A43EA0253CB620268936819
:1018200023F4007393600268936890F8301043EAE1
:10183000412393600268936823F480639360026895
:101840009368416943EA8123936070470268936813
:1018500023F0706393600268936823F040539360B1
:10186000BCE70268536843F400635360026853683E
:1018700023F46043536001684B68426A013A43EACB
:1018800042334B60BEE700BF002301400100000F60
:1018900038B310B50446036C43B1236C13F0100F3A
:1018A0000BD00120002384F83C3010BD05F03EFA37
:1018B0000023636484F83C30EFE7236C23F48853FF
:1018C00023F0020343F0020323642046FFF746FFA0
:1018D00000206064236C23F0030343F001032364BE
:1018E000E0E701207047000082B00023019390F8E8
:1018F0003C30012B6ED0012380F83C3003689A689D
:1019000012F0010F13D19A6842F001029A60344B31
:101910001B68344AA2FB03239B0C03EB4303019394
:1019200002E0019B013B0193019B002BF9D102686E
:10193000936813F0010F42D0036C23F4E06323F0AB
:10194000010343F480730364536813F4806F05D07C
:10195000036C23F4405343F480530364036C13F487
:10196000805F19D0436C23F006034364002380F8A2
:101970003C306FF0220313601B4B5B6813F01F0FAA
:101980000DD103689A6812F0405F25D19A6842F041
:1019900080429A6000201BE000234364E6E703686E
:1019A000124A934201D0002012E09A6812F0405F80
:1019B00014D19A6842F080429A60002008E0036CDB
:1019C00043F010030364436C43F0010343640020BD
:1019D00002B070470220FBE70020F9E70020F7E79C
:1019E0001800002083DE1B4300230140002001403B
:1019F00090F83C30012B19D0012380F83C3002686C
:101A0000936823F00103936003689B6813F0010F50
:101A100007D1036C23F4885323F0010343F001033F
:101A20000364002380F83C3018467047022070475A
:101A300003689A6812F4806F03D09B6813F4807F68
:101A40001CD170B50D460446FFF76EFE06462368AE
:101A50001A6812F0020F20D1B5F1FF3FF7D0B5B9E7
:101A600023681B6813F0020FF1D1236C43F00403C9
:101A70002364002384F83C30032033E0036C43F0FC
:101A800020030364002380F83C3001207047FFF7F7
:101A90004BFE801BA842DAD9E2E76FF012021A600F
:101AA000236C43F40073236423689A6812F0405F48
:101AB00017D1227EBAB9DA6A12F4700F03D09B688C
:101AC00013F4806F11D1236C23F480732364236C8F
:101AD00013F4805F0BD1236C43F0010323640020D7
:101AE00000E0002070BD0020FCE70020FAE70020A5
:101AF000F8E70368D86C704730B482B000230193D4
:101B000090F83C30012B00F0BD80012380F83C3080
:101B10000B68092B3ED90568EA689BB203EB4303C7
:101B20001E3B072404FA03F322EA0303EB60056873
:101B3000EA688C680B8803EB43031E3B04FA03F34B
:101B40001343EB604B68062B3AD805686A6B03EBCE
:101B50008303053B1F2404FA03F322EA03036B63A8
:101B600005686A6B4B6803EB8303053B0C8804FA3A
:101B700003F313436B630268434B9A4250D00268ED
:101B8000414B9A4259D0002380F83C30184602B0AD
:101B900030BC704705682A699BB203EB43030724F6
:101BA00004FA03F322EA03032B6105682A698C68AF
:101BB0000B8803EB430304FA03F313432B61C1E7E0
:101BC0000C2B16D805682A6B03EB8303233B1F24D9
:101BD00004FA03F322EA03032B6305682A6B4B68BC
:101BE00003EB8303233B0C8804FA03F313432B63B7
:101BF000C1E70568EA6A03EB8303413B1F2404FA4B
:101C000003F322EA0303EB620568EA6A4B6803EB1D
:101C10008303413B0C8804FA03F31343EB62AAE706
:101C20000B68122BABD1194B5A6822F400025A6090
:101C30005A6842F480025A60A1E70B68144A934242
:101C400001D0112B9FD1114B5A6822F480025A60A7
:101C50005A6842F400025A600A680D4B9A4292D1C7
:101C60000C4B1B680C4AA2FB03239B0C03EB830366
:101C70005A00019202E0019B013B0193019B002B62
:101C8000F9D180E7022082E70020014000230140D3
:101C9000120000101800002083DE1B43006C704708
:101CA000074AD36823F4E0631B041B0C000200F412
:101CB000E060184340F0BF6040F40030D0607047EF
:101CC00000ED00E030B4174BDB68C3F30223C3F12F
:101CD0000704042C28BF04241D1D062D18D9033B1E
:101CE0004FF0FF3505FA04F421EA0401994005FAA2
:101CF00003F322EA0303194300280BDB0901C9B2ED
:101D000000F1604000F5614080F8001330BC70477E
:101D10000023E5E700F00F000901C9B2024B195496
:101D2000F4E700BF00ED00E014ED00E0002807DB61
:101D300000F01F02400901239340024A42F820307C
:101D4000704700BF00E100E000280CDB00F01F023C
:101D50004009012393402030034A42F82030BFF36A
:101D60004F8FBFF36F8F704700E100E00138B0F193
:101D7000807F0AD2064B5860064AF02182F8231071
:101D80000020986007221A6070470120704700BF4A
:101D900010E000E000ED00E030B405682C6824F4A9
:101DA00080242C60046863608368402B05D003683E
:101DB00099600368DA6030BC704703689A60036812
:101DC000D960F8E70268D3B2103B0B49A1FB0313BB
:101DD0001B090A49C95CC165032B06D822F47F722E
:101DE00022F003028265806D704722F47F7222F038
:101DF000030204328265F6E7ABAAAAAA38DF00081C
:101E0000836A826992B9012B0AD01BB1022B01D0DF
:101E100000207047C36A13F0807F2CD100207047E8
:101E2000C36AB3F1C07F28D000207047B2F5005FCD
:101E300005D0022B29D9032B15D000207047032B86
:101E400003D8DFE803F01C041C0A00207047C36AB3
:101E500013F0807F15D100207047C36AB3F1C07FB3
:101E600011D000207047C36A13F0807F01D0012099
:101E70007047002070470120704701207047012003
:101E80007047012070470120704701207047000013
:101E900070B50446FFF748FC002C5BD005460023D4
:101EA00084F83430022384F835302268136823F034
:101EB0000103136023681A6812F0010F0AD0FFF7BC
:101EC00033FC401B0528F5D920236365032084F8E3
:101ED000350070BD1A68204810406168A2680A4346
:101EE000E1680A4321690A4361690A43A1690A4317
:101EF000E1690A43216A0A430243616A04291ED048
:101F00001A602668756925F00705636A1D43042B6E
:101F100007D1A36A1D43E36A1BB12046FFF770FF98
:101F200090B975612046FFF74DFFE26D3F23934066
:101F3000836000206065012384F83530C9E7E16AD9
:101F4000206B01430A43DBE740236365012084F8EB
:101F50003500BEE70120BCE73F8010F038B5856D45
:101F600090F83440012C2CD0012480F8344090F8B3
:101F70003540E4B2012C04D0002380F83430022034
:101F800038BD0446022084F83500002060652046F4
:101F9000FFF702FFE26D3F239340AB6022681368B6
:101FA00043F016031360236C23B12268136843F0D7
:101FB000080313602268136843F0010313600020D4
:101FC000DEE70220DCE770B50446866DFFF7ACFB68
:101FD00094F83530DBB2022B06D0802363650023F2
:101FE00084F83430012070BD05462268136823F060
:101FF000160313602268536923F080035361236C36
:10200000E3B12268136823F00803136022681368A1
:1020100023F00103136023681B6813F0010F11D034
:10202000FFF782FB401B0528F5D9202363650023B9
:1020300084F83430032084F83500D4E7A36C002BF7
:10204000DFD1E3E7E26D3F239340B360002084F8E3
:102050003400012384F83530C5E790F83530DBB221
:10206000022B03D08023436501207047052380F8AD
:1020700035300268136823F00103136000207047B5
:10208000F0B583B0044600230193724B1D68724B78
:10209000A3FB0535AD0A876D3E68C26D08239340EA
:1020A000334210D003681A6812F0040F0BD01A687C
:1020B00022F004021A60C26D08239340BB60436D96
:1020C00043F001034365E26D01239340334209D09D
:1020D0002268526912F0800F04D0BB60636D43F038
:1020E00002036365E26D04239340334209D0226802
:1020F000126812F0020F04D0BB60636D43F004035A
:102100006365E26D10239340334224D02268126845
:1021100012F0080F1FD0BB6023681A6812F4802FDA
:102120000DD01B6813F4002F04D1236C9BB1204603
:10213000984710E0A36C73B1204698470BE01A68EB
:1021400012F4807F03D11A6822F008021A60236C0F
:102150000BB120469847E26D20239340334255D07F
:102160002268126812F0100F50D0BB6094F835301E
:10217000DBB2052B0ED023681A6812F4802F33D0FF
:102180001B6813F4002F2AD1636C002B3ED020462D
:1021900098473BE02268136823F016031360226817
:1021A000536923F080035361236CA3B12268136841
:1021B00023F008031360E26D3F239340BB600023CC
:1021C00084F83430012384F83530236D002B3FD060
:1021D000204698473CE0A36C002BE7D1EBE7E36B8C
:1021E000A3B12046984711E01A6812F4807F09D104
:1021F0001A6822F010021A60002384F83430012398
:1022000084F83530E36B0BB120469847636DFBB122
:10221000636D13F0010F17D0052384F83530226861
:10222000136823F001031360019B01330193AB4258
:1022300004D823681B6813F0010FF5D1002384F83C
:102240003430012384F83530E36C0BB120469847D5
:1022500003B0F0BD18000020B5814E1B90F835008A
:102260007047000000230F2B00F2CA80F0B482B048
:102270005DE086685F000324BC4026EA0406CC6863
:10228000BC4034438460466826EA02064C68C4F3C6
:1022900000129A403243426056E0DC08083450F89D
:1022A000247003F0070296000F22B24027EA0207CB
:1022B0000A69B2403A4340F8242059E0042200E081
:1022C0000022B2403A4302344E4E46F824204E4A91
:1022D0001468EA4302EA04064F6817F4803F01D00D
:1022E00045EA0406484C2660646802EA04064F6822
:1022F00017F4003F01D045EA0406434C6660A46829
:1023000002EA04064F6817F4801F01D045EA04066C
:102310003D4CA660E46822404E6816F4001F01D0D0
:1023200045EA0402384CE26001330F2B65D80122E4
:102330009A400C6804EA0205AA42F5D14C6804F000
:102340000304013C012C94D94A6802F00302032AD9
:1023500009D0C4685E000322B24024EA02048A68FD
:10236000B2402243C2604A6802F00302022A94D0BB
:1023700004685E000322B24024EA02044A6802F0C4
:102380000302B240224302604A6812F0805FCBD061
:10239000002201921D4A546C44F480445464526CEF
:1023A00002F480420192019A9C08A61C154A52F838
:1023B000267003F0030296000F22B24027EA0207BC
:1023C000134A90423FF47CAF02F5806290420ED0F7
:1023D00002F5806290420CD002F5806290420AD0F1
:1023E00002F5806290423FF469AF072269E701225B
:1023F00067E7022265E7032263E702B0F0BC70479B
:10240000704700BF00380140003C014000380240E6
:102410000000024090F83E30DBB2402B0AD0036946
:10242000B3F5804F15D0036D002B34D0036D012B15
:102430003BD07047036D2BB9436C026803F0FE0379
:1024400013617047436C026843F00103DBB2136110
:10245000704790F83D30DBB2212B0FD0436C0268FF
:1024600043F00103DBB21361436B6BB1DB6B5BB118
:102470000268536843F4006353607047436C02681A
:1024800003F0FE031361EFE7836B002BD1D0DB6B0E
:10249000002BEDD1CDE7436CC3F3C813026803F002
:1024A000060343F0F00313617047436CC3F3C81392
:1024B000026803F0060343F0F1031361B9E7436CCC
:1024C0000268DBB21361436B3BB1DB6B2BB102687B
:1024D000536843F4006353607047836B002BFBD059
:1024E000DB6B002BF3D1F7E710B48BB090F83E30E4
:1024F000DAB2C16A046B90F83D30DBB2222B0BD00C
:102500000023099303685A6909929B690993099BFF
:102510000BB05DF8044B7047036D0BB9402A17D020
:10252000036D1BB90369B3F5404F19D0438D9BB2BE
:10253000002B25D1029303685A6902929A6902928C
:10254000029A1A6842F400721A6000230365DFE7FA
:10255000009303685A6900929B690093009BD7E738
:102560000023019303685A6901929A690192019AC2
:102570001A6842F480721A60036D01330365C7E77D
:10258000438D9BB2012B25D0438D9BB2022B7BD078
:102590000268136843F48063136003685A6812F496
:1025A000006F0ED011F5803F07D0012905D0082912
:1025B00003D0102901D0202903D15A6842F4805257
:1025C0005A600023089303685A6908929B6908932C
:1025D000089BBAE711F5803F11D0082934D0202993
:1025E00032D0122C2ED0042940D002293ED01029FE
:1025F0003CD00268136823F4806313603BE00268F8
:10260000136823F48063136003685A6812F4006F40
:102610000CD01A6822F480621A60002303930368C6
:102620005A6903929B690393039B8EE700220492ED
:102630005A6904929A690492049A1A6842F40072E0
:102640001A6082E70129CED00268136823F4806300
:1026500013600023069303685A6906929A690692EA
:10266000069A1A6842F400721A606EE702681368EC
:1026700043F4806313600023059303685A6905924D
:102680009B690593059B60E704290ED002290CD0B5
:1026900010290AD00268136823F48063136002686B
:1026A000136843F40063136004E00268136843F4A2
:1026B0008063136003685A6812F4006F0ED011F53E
:1026C000803F07D0012905D0082903D0102901D067
:1026D000202903D15A6842F480525A60002307939C
:1026E00003685A6907929B690793079B2DE7438DFF
:1026F0009BB253B1426A036812781A61436A01338C
:102700004362438D013B9BB243857047438D9BB22F
:1027100053B103681A69436A1A70436A013343620A
:10272000438D013B9BB243857047000082B000237C
:1027300001930E4B1B68DB080D4AA2FB03231B0A07
:1027400003EB83030193019B013B0193019B33B195
:1027500003681B6813F4007FF5D1002004E0036CCC
:1027600043F020030364012002B0704718000020EA
:1027700089B5F814C36AB3F52A0F04D0C36AB3F15C
:102780002A4F03D070470123C36270470823C362F6
:10279000F8E70000002800F0C880F8B5044690F87B
:1027A0003D30002B75D0242384F83D302268136817
:1027B00023F0010313602268136843F4004313609D
:1027C0002268136823F40043136001F06DFA626815
:1027D000584B9A4262D8584B98428CBF0023012331
:1027E000002B40F0A480554BA3FB00239B0C2168D9
:1027F0004A6822F03F021A434A6025682A6A22F09A
:102800003F0266684B498E424ED8013313432B6218
:102810002568E96921F44F4121F0FF016368454AC9
:1028200093424BD801385B00B0FBF3F30133C3F3A1
:102830000B03042B38BF04230B43EB6121680B68A7
:1028400023F0C003E269206A024313430B6021684E
:102850008B6823F4034323F0FF032269E0680243FB
:1028600013438B602168CB6823F0FF036269A06982
:1028700002431343CB602268136843F001031360E3
:1028800000202064202384F83D30206384F83E003B
:10289000F8BD80F83C3004F07DFA84E7284B98427C
:1028A0008CBF002301239BE74FF4967101FB03F3D8
:1028B0002449A1FB03139B090133A7E7A268BAB916
:1028C000461E03EB4307B6FBF7F60136C6F30B06CD
:1028D000B6FA86F6760936BBC2B9013803EB430374
:1028E000B0FBF3F30133C3F30B0242F40043A3E75D
:1028F000461E03EB830707EB8707B6FBF7F60136A7
:10290000C6F30B06B6FA86F67609E4E7013803EB60
:10291000830303EB8303B0FBF3F20132C2F30B0238
:1029200042F4404388E7012386E7012070470120F5
:10293000AEE700BFA08601007F841E0083DE1B433C
:10294000FF083D00D34D621030B482B090F83D4096
:1029500004F02804282C34D1002936D0002A36D09F
:1029600090F83C40012C34D0012480F83C400468AD
:10297000256815F0010F03D1256845F00105256094
:1029800005682C6824F400642C60292480F83D40FC
:10299000202480F83E400024046441624285428D38
:1029A0000285C362019403685A6901929A6901928F
:1029B000019A80F83C405A6842F4E0625A6020462E
:1029C00000E0022002B030BC70470120FAE701208D
:1029D000F8E70220F6E730B482B090F83D4004F00A
:1029E0002804282C34D1002936D0002A36D090F87B
:1029F0003C40012C34D0012480F83C400468256818
:102A000015F0010F03D1256845F001052560056823
:102A10002C6824F400642C602A2480F83D40202493
:102A200080F83E400024046441624285428D028564
:102A3000C362019403685A6901929A690192019AEA
:102A400080F83C405A6842F4E0625A60204600E058
:102A5000022002B030BC70470120FAE70120F8E7FD
:102A60000220F6E790F83D30DBB2202B17D1282367
:102A700080F83D3003681A6812F0010F03D11A681C
:102A800042F001021A600268136843F48063136025
:102A90000268536843F4407353600020704702207B
:102AA0007047704708B5C26A90F83D30DBB2212B01
:102AB00000D008BD438D9BB2D3B9082A04D0202A88
:102AC00002D012F5803F1FD10268536823F4E063FF
:102AD00053600268136843F40073136000230363B8
:102AE000202280F83D2080F83E30FFF7DAFFE0E753
:102AF000426A036812781A61436A01334362438D64
:102B0000013B9BB24385D4E70268536823F4E0633A
:102B1000536011230363002380F83E30202380F8A4
:102B20003D30FFF7BEFFC4E7704708B590F83D3071
:102B3000DAB2438D9BB27BB1416A036809781961AF
:102B4000436A01334362438D013B9BB24385438D0E
:102B50009BB20BB9292A00D008BD0268536823F440
:102B60008063536021230363282380F83D3003F002
:102B7000DFFDF1E708B590F83D30DAB2438D9BB246
:102B80007BB103681969436A1970436A0133436270
:102B9000438D013B9BB24385438D9BB20BB92A2ADF
:102BA00000D008BD0268536823F480635360222379
:102BB0000363282380F83D3003F072FDF1E708B588
:102BC00090F83D3003F02803282B07D003686FF0FE
:102BD00002025A61002380F83C3008BD0268536845
:102BE00023F48063536011F0040F0BD0002311F025
:102BF000800F09D18289002180F83C10194603F02A
:102C000025FDEAE70123F2E7028BF4E708B590F827
:102C10003D30DBB2C26A082A01D0202A01D1282B1C
:102C200006D0212B1ED003686FF480625A6108BD64
:102C30001A4BC3620268536823F4E063536003686D
:102C40006FF480625A610268136823F48063136032
:102C500000230363202280F83D2080F83E3003F0FB
:102C60006DFDE4E70D4BC36221230363202380F84D
:102C70003D30002380F83E300268536823F4E0635F
:102C8000536003686FF480625A610268136823F42A
:102C90008063136003F04CFDC9E700BF0000FFFF35
:102CA000704708B590F83D30026D9AB9C36C012B9E
:102CB00008D0836CC3F3072302681361036D0133EB
:102CC000036508BD836C0268DBB21361036D0233D8
:102CD0000365F6E7DBB2026D012A23D0026D022AFA
:102CE000EFD1222B26D0428D92B20AB1212B27D0D0
:102CF000428D92B2002AE4D1212BE2D102685368BE
:102D000023F4E06353600268136843F400731360B4
:102D100000230363202280F83D2080F83E30FFF737
:102D2000BFFFCEE7836C0268DBB21361036D013332
:102D30000365C6E70268136843F480731360C0E755
:102D4000426A036812781A61436A01334362438D11
:102D5000013B9BB24385B4E710B590F83D30DBB240
:102D600090F83E20D2B2C46A018D09B9212B04D05B
:102D7000212B3BD0402A37D010BD082C04D0202C6A
:102D800002D014F5803F19D10268536823F4E06340
:102D900053600268136843F40073136000230363F5
:102DA000202380F83D3090F83E30DBB2402B15D028
:102DB000002380F83E30FFF774FEDDE702685368B9
:102DC00023F4E063536011230363002380F83E3053
:102DD000202380F83D30FFF764FECDE7002380F824
:102DE0003E30FFF75DFFC7E7222BC5D1438D9BB275
:102DF00083B190F83E30DBB2402B11D0426A0368B9
:102E000012781A61436A01334362438D013B9BB2DE
:102E10004385B1E70268536823F480635360ABE7EE
:102E2000FFF73FFFA8E7704708B5C26A438D9BB222
:102E3000042B13D0438D9BB2032B20D0438D9BB228
:102E4000022B36D003681A69436A1A70436A013349
:102E50004362438D013B9BB243850FE00268536898
:102E600023F48063536003681A69436A1A70436AE3
:102E700001334362438D013B9BB2438508BD01682A
:102E80004B6823F480634B60042A06D0022A04D0E6
:102E90000268136823F48063136003681A69436A45
:102EA0001A70436A01334362438D013B9BB24385F1
:102EB000E4E7012A0BD0102A09D0042A36D0022ACE
:102EC00034D00268136843F40073136004E00268AE
:102ED000136823F48063136003681A69436A1A70E5
:102EE000426A531C4362438D013B9BB24385036896
:102EF0001B695370436A01334362438D013B9BB2AC
:102F000043850268536823F440735360202380F89C
:102F10003D3090F83E30DBB2402B0DD0002380F8DE
:102F20003E3012230363FFF7FFFDA7E70268136833
:102F300043F480631360CFE7002380F83E300363DF
:102F4000FFF771FF9AE790F83D30DBB2222B00D0FB
:102F50007047438D9BB2032B14D903681A69436AE7
:102F60001A70436A01334362438D013B9BB2438530
:102F7000438D9BB2032BEBD10268536823F480632B
:102F800053607047C26A022AE2D0012BE0D810B524
:102F90000446FFF7CBFB68BB2268136823F4806309
:102FA00013602268536823F4E063536023681A694E
:102FB000636A1A70636A01336362638D013B9BB27B
:102FC0006385202384F83D3094F83E30DBB2402BFB
:102FD00008D0002384F83E30122323632046FFF7F5
:102FE000A3FD10BD002384F83E3023632046FFF785
:102FF0001AFFF6E72268536823F4E06353602368FE
:103000001A69636A1A70636A01336362638D013BF4
:103010009BB26385202384F83D30002384F83E3042
:10302000204603F08FFBDCE700B583B0002301935B
:10303000806B90F83D20D2B2324B1B68DB083249DE
:10304000A1FB03131B0A03EB8303C3EBC30301932D
:10305000019B43B1019B013B019303681B6813F47F
:10306000007FF5D103E0036C43F020030364436B5E
:103070000BB10021D963836B0BB10021D9630168C7
:103080000B6823F480630B6000234385436B0BB113
:1030900000211965836B0BB10021196501680B686C
:1030A00023F001030B6090F83D30DBB2602B0ED0B3
:1030B00002F02802282A14D0202380F83D30002373
:1030C00080F83E3003F03EFB03B05DF804FB2023A4
:1030D00080F83D30002380F83E30036403F026FB87
:1030E000F2E70268136843F0010313600268136893
:1030F00043F48063136000230363282380F83D308A
:10310000E0E700BF1800002089B5F81410B50446A8
:1031100090F83D30DBB290F83E20D2B2102A36D083
:10312000402A34D003F02802282A38D02268526876
:1031300012F4006F07D1602B05D0202384F83D30B6
:10314000002384F83E300023236323685A6812F476
:10315000006F48D05A6822F400625A60626B92F89D
:103160003530DBB2012B20D0444B1365606BFEF78A
:1031700074FF002849D02268136823F0010313600C
:10318000202384F83D30606B036D98473DE0222B8F
:10319000C8D121680A6822F400620A60C2E70023ED
:1031A0002363282384F83D30CFE7A36B334A1A65A5
:1031B000A06BFEF752FF40B323685A6912F0400F2C
:1031C00005D01A69636A1A70636A01336362226800
:1031D000136823F001031360202384F83D30A06BB3
:1031E000036D984711E094F83D20D2B2602A1FD0B9
:1031F0005A6912F0400F05D01A69636A1A70636A3F
:1032000001336362204603F09DFA236C13F00F0F25
:1032100004D02268536823F4E063536094F83D308F
:10322000DBB2226C12F0040F01D0282B18D010BD95
:10323000202284F83D20002222645A6912F0400FB7
:1032400005D01A69636A1A70636A0133636222687F
:10325000136823F001031360204603F067FAD4E7F4
:10326000074BE36200232363202284F83D2084F887
:103270003E30204603F062FAD9E700BF293000084B
:103280000000FFFF30B583B0044690F83D50EDB22A
:103290000268536823F4E0635360002301930368DA
:1032A0005A6901921A6842F001021A60019B026891
:1032B000136823F48063136003685A6812F4006F84
:1032C00038D0222D21D02A2D1FD0426B126852688F
:1032D00092B24285428D92B21AB1026C42F004025F
:1032E00002645A6822F400625A60606BFEF7B6FF0F
:1032F00001281FD0636B434A1A65606BFEF7ADFE71
:10330000C0B1606B036D984714E0A26B12685268FD
:1033100092B26285628D92B21AB1226C42F00402BE
:1033200022645A6822F400625A60A06BFEF796FF8E
:10333000012840D1638D9BB223B323685A6912F0F0
:10334000040F09D01A69636A1A70636A01336362F1
:10335000638D013B9BB2638523685A6912F0400F6D
:1033600009D01A69636A1A70636A01336362638DF4
:10337000013B9BB26385638D9BB21BB1236C43F011
:1033800004032364236C13BB2A2D25D094F83D300D
:10339000DBB2282B29D0236B222B01D0222D19D16F
:1033A00000232363202284F83D2084F83E30204609
:1033B00003F076F90EE0A36B124A1A65A06BFEF7D4
:1033C0004CFE0028B6D0A06B036D9847B2E72046AC
:1033D000FFF79CFE03B030BD00232363282384F84D
:1033E0003D30204603F05CF9D0E7074BE362002351
:1033F0002363202284F83D2084F83E30204603F0E9
:103400009DF9E7E7293000080000FFFFF8B5044602
:1034100002685568C66A90F83E30DBB290F83D10FD
:10342000102B14D0C8B2402B11D0236C002B77D0B6
:103430005369002113F0020F75D015F4007F72D08C
:10344000236C03B191692046FFF7B9FBF8BD97697A
:10345000516911F0010005D1B6F52A0FF6D0B6F189
:103460002A4FF3D010B115F4007F27D111F0080FC7
:1034700002D015F4007F28D111F0020F02D015F40C
:10348000007F26D117F0040F2FD0526812F4006F7E
:10349000DCD111F0800F05D015F4806F02D011F04F
:1034A000040F1AD011F0040FD0D015F4007FCDD046
:1034B000102B16D02046FFF7F4FBC7E72046FFF796
:1034C00059F92046FEF7A6FFC0E72046FEF7F7FFB2
:1034D000BCE72046FFF708F8B8E72046FFF73CFCBA
:1034E000B4E72046FFF7DEFAB0E7536813F4006F45
:1034F000ACD111F0400F05D015F4806F02D011F05F
:10350000040F09D011F0040FA0D015F4007F9DD056
:103510002046FFF789FC99E72046FFF714FD95E761
:103520009169536986E713F0100F02D015F4007FFC
:1035300018D121281AD0292818D013F0400F05D00F
:1035400015F4806F02D013F0040F28D013F0040F8D
:103550003FF47CAF15F4007F3FF478AF2046FFF7CF
:10356000D5F873E72046FFF78DFE6FE713F0800F65
:1035700005D015F4806F02D013F0040F0BD013F0B8
:10358000040F3FF463AF15F4007F3FF45FAF2046B4
:10359000FFF7ADF85AE72046FFF7C7FA56E720468F
:1035A000FFF7E8FA52E7F8B5044603685D695F681B
:1035B00090F83E20D2B215F4807F07D017F4807FB8
:1035C0003CD06FF480715961012600E0002615F4AB
:1035D000007F08D017F4807F05D046F002062368EC
:1035E0006FF40071596115F4806F19D017F4807F62
:1035F00016D0638D99B294F83D30DBB2206B202A4F
:103600001ED023686FF48061596146F00406102AC9
:1036100001D0402A04D12268136843F40073136078
:1036200015F4006F08D017F4807F05D046F0080627
:1036300023686FF400625A6186B9F8BD0026C6E7B8
:103640000029DED1212B05D0292B03D0282BD8D15E
:103650002128D6D12046FFF7D9FAE1E7236C1E4393
:1036600026642046FFF752FDE7E70000002800F03F
:10367000E98170B582B00446036813F0010F3BD0B6
:10368000A74B9B6803F00C03042B2CD0A44B9B6826
:1036900003F00C03082B21D06368B3F5803F4FD0B3
:1036A000B3F5A02F52D09E4B1A6822F480321A60D4
:1036B0001A6822F480221A606368002B50D0FEF74B
:1036C00033F80546964B1B6813F4003F14D1FEF700
:1036D0002BF8401B6428F5D90320B8E1904B5B68B8
:1036E00013F4800FD8D08E4B1B6813F4003F03D027
:1036F0006368002B00F0A881236813F0020F55D0F7
:10370000874B9B6813F00C0F3ED0854B9B6803F0F2
:103710000C03082B33D0E368002B68D0814B0122C7
:103720001A60FEF701F805467D4B1B6813F0020F87
:1037300054D1FDF7F9FF401B0228F5D9032086E19B
:10374000774A136843F480331360B5E7744B1A6803
:1037500042F480221A601A6842F480321A60ABE7A1
:10376000FDF7E2FF05466E4B1B6813F4003FC3D024
:10377000FDF7DAFF401B6428F5D9032067E1684BA9
:103780005B6813F4800FC6D1654B1B6813F0020F02
:1037900004D0E368012B01D0012058E1604A13688E
:1037A00023F0F803216943EAC1031360236813F08F
:1037B000080F40D0636963B35B4B01221A60FDF7C9
:1037C000B3FF0546564B5B6F13F0020F33D1FDF785
:1037D000ABFF401B0228F5D9032038E1504A13689B
:1037E00023F0F803216943EAC1031360DEE74D4B80
:1037F00000221A60FDF798FF0546494B1B6813F03D
:10380000020FD3D0FDF790FF401B0228F5D903200B
:103810001DE1454B00221A60FDF786FF0546404B2F
:103820005B6F13F0020F06D0FDF77EFF401B0228EE
:10383000F5D903200BE1236813F0040F79D0384B3E
:103840001B6C13F0805F33D100230193344B1A6C4F
:1038500042F080521A641B6C03F080530193019B69
:103860000125324B1B6813F4807F23D0A368012B02
:1038700034D0052B38D02A4B1A6F22F001021A6778
:103880001A6F22F004021A67A368002B36D0FDF7E6
:103890004BFF0646224B1B6F13F0020F48D1FDF77A
:1038A00043FF801B41F288339842F3D90320CEE0D6
:1038B0000025D6E71D4A136843F480731360FDF7B3
:1038C00033FF0646194B1B6813F4807FCED1FDF7FA
:1038D0002BFF801B0228F5D90320B8E0104A136F94
:1038E00043F001031367CFE70D4B1A6F42F0040258
:1038F0001A671A6F42F001021A67C5E7FDF714FF55
:103900000646074B1B6F13F0020F11D0FDF70CFF9B
:10391000801B41F288339842F3D9032097E000BF1F
:103920000038024000004742800E474200700040CD
:10393000EDB9A369002B00F08980484A926802F033
:103940000C02082A51D0022B17D0454B00221A60D6
:10395000FDF7EAFE0446414B1B6813F0007F42D09E
:10396000FDF7E2FE001B0228F5D903206FE03B4A79
:10397000136C23F080531364DBE7394B00221A6089
:10398000FDF7D2FE0546354B1B6813F0007F06D0CD
:10399000FDF7CAFE401B0228F5D9032057E0E36972
:1039A000226A1343626A43EA8213A26A5208013A06
:1039B00043EA0243E26A43EA0263284A5360284B1F
:1039C00001221A60FDF7B0FE0446244B1B6813F079
:1039D000007F06D1FDF7A8FE001B0228F5D90320C1
:1039E00035E0002033E0002031E0012B31D01B4BCB
:1039F0005B6803F48001E269914201D0012026E076
:103A000003F03F02216A8A4201D001201FE0616A6F
:103A100047F6C0721A40B2EB811F01D0012016E0B8
:103A200003F44031A26A5208013AB1EB024F01D0CF
:103A300001200CE003F07063E26AB3EB026F0AD07E
:103A4000012004E001207047012000E0002002B0C6
:103A500070BD0120FBE70020F9E700BF00380240FD
:103A600060004742324B9B6803F00C03042B5CD090
:103A7000082B01D02F4870472DE9F04B2C4B5A688A
:103A800002F03F025B6813F4800F2BD0284B5B6879
:103A9000C3F388131E4600275C010025E41A65EB7A
:103AA0000705A90141EA9461A001001B61EB050132
:103AB000CB0043EA5073C400A01943EB07014B024B
:103AC00043EAD0534402204619460023FDF706FC82
:103AD000174B5B68C3F3014301335B00B0FBF3F0AA
:103AE000BDE8F08B124B5B68C3F388131E460027BA
:103AF0005C010025E41A65EB0705A90141EA946120
:103B0000A001001B61EB0501CB0043EA5073C40028
:103B1000A01943EB07018B0243EA9053840220462D
:103B200019460023FDF7DAFBD2E70348704700BFD0
:103B3000003802400024F40000127A00002800F04F
:103B40009E8070B50446504B1B6803F007038B4200
:103B500009D2CBB24C4A1370136803F007038B42AF
:103B600001D0012070BD236813F0020F17D013F0AD
:103B7000040F04D0454A936843F4E05393602368EC
:103B800013F0080F04D0414A936843F460439360F4
:103B90003E4A936823F0F003A068034393600D4608
:103BA000236813F0010F32D06368012B21D09A1ED5
:103BB000012A25D9354A126812F0020F61D0334923
:103BC0008A6822F0030213438B60FDF7ADFD0646C1
:103BD0002E4B9B6803F00C036268B3EB820F16D088
:103BE000FDF7A2FD801B41F288339842F0D90320F3
:103BF000B8E7264A126812F4003FE0D10120B1E78D
:103C0000224A126812F0007FD9D10120AAE71E4B88
:103C10001B6803F00703AB4209D9EAB21A4B1A70CA
:103C20001B6803F00703AB4201D001209AE7236829
:103C300013F0040F06D0154A936823F4E053E168AB
:103C40000B439360236813F0080F07D00F4A936863
:103C500023F46043216943EAC1039360FFF702FF45
:103C60000A4B9B68C3F30313094AD35CD840094B42
:103C70001860094B1868FDF70BFD002072E7012062
:103C8000704701206EE700BF003C02400038024050
:103C9000D0E100081800002004000020014B186843
:103CA000704700BF1800002008B5FFF7F7FF044B6E
:103CB0009B68C3F38223034AD35CD84008BD00BF8E
:103CC00000380240E0E1000808B5FFF7E7FF044BC9
:103CD0009B68C3F34233034AD35CD84008BD00BF9E
:103CE00000380240E0E100082DE9F04383B00446CB
:103CF0000F4616461D46FDF717FD0A9B181A00EBE6
:103D00000508FDF711FD81462A4B1B68C3F3CB3331
:103D100008FB03F3019323689B6837EA03030CBF96
:103D200001230023B34240D0B5F1FF3FF3D0FDF7AC
:103D3000FBFCA0EB090040450AD2B8F1000F07D008
:103D4000019B0BB94FF00008019B013B0193E2E797
:103D50002268536823F0E00353606368B3F5827F01
:103D60000BD0A36AB3F5005F14D0012384F851305F
:103D7000002384F85030032018E0A368B3F5004F07
:103D800002D0B3F5806FECD12268136823F04003B2
:103D90001360E6E72268136823F400531360226877
:103DA000136843F400531360DFE7002003B0BDE85D
:103DB000F08300BF1800002030B585B0164C246891
:103DC000164DA5FB0434640D4FF47A7505FB04F41D
:103DD00003944468B4F5827F0BD0039BC3B1039B6B
:103DE000013B039303689B6813F0800FF5D1002318
:103DF0000FE00B460446009200228021FFF774FF7B
:103E0000034630B1636D43F020036365032300E094
:103E10000023184605B030BD18000020819F5E16B3
:103E200010B582B004464068B0F5827F16D0606855
:103E3000B0F5827F2ED1A368B3F5806F1BD00092BE
:103E40000B46002280212046FFF74EFF034650B369
:103E5000636D43F020036365032324E0A368B3F597
:103E6000004F02D0B3F5806FE1D12068036823F0E2
:103E700040030360DBE700920B460022012120464D
:103E8000FFF732FF034670B1636D43F020036365B3
:103E9000032308E000920B46002201212046FFF791
:103EA00023FF034610B9184602B010BD636D43F0FE
:103EB000200363650323F6E700285AD010B50446B3
:103EC000436A33B94368B3F5827F05D00023C361E9
:103ED00002E00023036143610023A36294F85130A0
:103EE000002B40D0022384F851302268136823F05D
:103EF00040031360636803F48273A26802F404420F
:103F00001343E26802F400621343226902F00202E2
:103F10001343626902F001021343A26902F40072C2
:103F20001343E26902F038021343226A02F080026E
:103F30001343A26A02F40052216813430B60638B9F
:103F400003F00403626A02F01002216813434B601D
:103F50002268D36923F40063D361002060650123E4
:103F600084F8513010BD84F85030204602F0BCFF78
:103F7000B8E701207047000038B590F85040012C98
:103F800000F095800446012084F8500094F8510018
:103F9000C0B2656801280FD0B5F5827F05D0022335
:103FA000002284F85020184638BDA568002D76D12F
:103FB000042801D00223F3E7002972D0002A72D02E
:103FC000002B72D094F85100C0B2042802D0052012
:103FD00084F85100002060652163A386E386A26314
:103FE000A387E3872064606494F85130DBB2042B2C
:103FF0001BD0E36C2F4A1A64E36C2F4ADA63E36C3C
:104000002E4ADA64E36C00221A652168E38FA26B02
:104010000C31E06CFDF7A2FF70B1636D43F010034B
:104020006365012384F85130BAE7E36C244A1A64CB
:10403000E36C244ADA63E2E72268536843F0010341
:104040005360A26C00231364A26CD363A26CD3648C
:10405000A26C13652268E38E0C32216BA06CFDF715
:104060007DFF034638B1636D43F0100363650123A0
:1040700084F8513094E72268116811F0400F03D1A1
:10408000116841F04001116021684A6842F0200245
:104090004A6021684A6842F002024A6080E70223CF
:1040A0007EE701237CE701237AE7012378E70223F7
:1040B00079E700BFD34100086F420008DF410008E4
:1040C000C74100080142000838B5044685681DB99B
:1040D0004368B3F5827F11D094F85000012869D06D
:1040E000012084F8500094F85100C0B201280ED08D
:1040F0000223002284F85020184638BD042380F89B
:10410000513013460A46FFF737FF0346F4E700290C
:104110004CD0002A4CD0042384F85130002363652E
:10412000A163A287E28723646364A386E386B5F56F
:10413000004F1CD0E36C204A1A64E36C1F4ADA6318
:10414000E36C1F4ADA64E36C00221A652168E38F8E
:10415000A26B0C31E06CFDF701FF034690B1636D7B
:1041600043F010036365012384F85130C1E72268EE
:10417000136823F0400313602268136823F480431C
:104180001360D7E72268116811F0400F03D111685E
:1041900041F04001116021684A6842F020024A6003
:1041A00021684A6842F001024A60A2E70123A0E7C1
:1041B00001239EE702239FE7C74100080142000850
:1041C000DF410008704708B5806B02F011FA08BDA6
:1041D000704708B5806BFFF7FBFF08BD704708B557
:1041E000806B0268536823F003035360436D43F010
:1041F00010034365012380F85130FFF7EFFF08BD3E
:1042000038B50546846BFDF78FFA2B681B6813F4ED
:10421000807F1ED121684B6823F020034B60A36888
:104220001BB96368B3F5827F17D02268536823F007
:1042300001035360024664212046FFF7F1FD08B1F7
:10424000202363650023E387012384F85130636DE5
:104250004BB9204602F0D8F938BD2268536823F0E4
:1042600003035360E6E72046FFF7B8FFF4E738B5ED
:104270000546846BFDF758FA2B681B6813F4807FA2
:104280001BD12268536823F0200353600246642147
:104290002046FFF791FD18B1636D43F0200363657D
:1042A0002268536823F0030353600023E386E38707
:1042B000012384F85130636D1BB92046FFF782FF5C
:1042C00038BD2046FFF78AFFFAE7000030B585B019
:1042D0000446026850689368C3F3801149B913F02B
:1042E000010F06D010F0400F03D0236C20469847F2
:1042F00008E013F0020F07D010F0800F04D0636CB9
:104300002046984705B030BDC3F340151DB911B91B
:1043100013F4807FF6D010F0200FF3D079B194F829
:104320005110C9B2032953D0616D41F00401616598
:1043300000210091D168009191680091009965B1C8
:10434000616D41F001016165002102919168029166
:10435000116821F040011160029A13F4807F09D0A6
:10436000636D43F0080363650023039323689B6830
:104370000393039B636D002BC4D02268536823F022
:10438000E0035360012384F8513010F0030F27D06D
:104390002268536823F003035360E36C4BB1124A65
:1043A0001A65E06CFDF759FE18B1636D43F04003E8
:1043B0006365A36C002BA5D00B4A1A65A06CFDF7B2
:1043C0004CFE00289ED0636D43F04003636599E77F
:1043D00000230193D368019393680193019B91E7B4
:1043E0002046FFF7FBFE8DE7ED43000808B5806B24
:1043F0000023C387C386FFF7F1FE08BD70B4036ACC
:1044000023F001030362036A4268846924F07304A1
:104410000D6845EA040623F002048B6823430D4D22
:10442000A84209D00B4DA8420DD0426086614A686F
:104430004263036270BC704723F00803CC682343D7
:1044400023F00403EEE722F440724C6914438A69B6
:104450002243EAE70000014030B4036A23F480738A
:104460000362036A4268C46924F073040D682C4334
:1044700023F400738D6843EA05230F4DA84209D049
:104480000D4DA8420ED04260C4614A68C263036207
:1044900030BC704723F40063CD6843EA052323F45E
:1044A0008063EDE722F440524D6942EA05128D69BE
:1044B00042EA0512E7E700BF0000014030B4036A9A
:1044C00023F480530362036A4468C26922F4E6421B
:1044D0000D6842EA052223F400538D6843EA053350
:1044E000074DA84206D04460C2614A680264036274
:1044F00030BC704724F480444D6944EA8514F2E7E7
:10450000000001407047704770477047704710B512
:10451000044603681A6912F0020F11D0DA6812F02B
:10452000020F0DD06FF002021A61012303770368B6
:104530009B6913F0030F70D0FFF7E6FF002323778A
:1045400023681A6912F0040F12D0DA6812F0040F0F
:104550000ED06FF004021A610223237723689B694F
:1045600013F4407F5FD02046FFF7CEFF0023237770
:1045700023681A6912F0080F12D0DA6812F0080FD7
:104580000ED06FF008021A61042323772368DB69D9
:1045900013F0030F4ED02046FFF7B6FF002323771A
:1045A00023681A6912F0100F12D0DA6812F0100F97
:1045B0000ED06FF010021A61082323772368DB699D
:1045C00013F4407F3DD02046FFF79EFF0023237762
:1045D00023681A6912F0010F03D0DA6812F0010F94
:1045E00036D123681A6912F0800F03D0DA6812F00E
:1045F000800F34D123681A6912F0400F03D0DA68B3
:1046000012F0400F32D123681A6912F0200F03D044
:10461000DA6812F0200F30D110BDFFF774FF20468A
:10462000FFF773FF8AE72046FFF76DFF2046FFF78D
:104630006CFF9BE72046FFF766FF2046FFF765FF0C
:10464000ACE72046FFF75FFF2046FFF75EFFBDE7C0
:104650006FF001021A612046FFF754FFC1E76FF0C7
:1046600080021A61204600F00EFAC3E76FF04002A4
:104670001A612046FFF74AFFC5E76FF020021A6172
:10468000204600F0FFF9C7E70368254A90420ED0A4
:10469000B0F1804F0BD0A2F57C42904207D002F5DA
:1046A0008062904203D002F58062904203D123F0F1
:1046B00070034A6813431A4A90421AD0B0F1804FEF
:1046C00017D0A2F57C42904213D002F5806290424E
:1046D0000FD002F5806290420BD002F59A329042E0
:1046E00007D002F58062904203D002F580629042CA
:1046F00003D123F44073CA68134323F080034A694B
:10470000134303608B68C3620B688362044B984257
:1047100002D00123436170470B690363F9E700BFCF
:104720000000014038B310B5044690F83D30EBB1BD
:10473000022384F83D30211D2068FFF7A5FF0123E7
:1047400084F8463084F83E3084F83F3084F84030B6
:1047500084F8413084F8423084F8433084F844309F
:1047600084F8453084F83D30002010BD80F83C309E
:1047700002F048FDDCE701207047000030B4036A16
:1047800023F010030362036A4468826922F4E6425C
:104790000D6842EA052223F020038D6843EA0513E1
:1047A0000E4DA84209D00D4DA8420ED04460826142
:1047B0004A688263036230BC704723F08003CD688F
:1047C00043EA051323F04003EDE724F440644D6908
:1047D00044EA85048D6944EA8504E7E70000014066
:1047E00038B590F83C30012B60D00D4604460123CB
:1047F00080F83C300C2A1AD8DFE802F007191919A2
:104800001D1919193119191944000068FFF7F6FD2F
:104810002268936943F0080393612268936923F047
:10482000040393612268936929690B439361002013
:1048300084F83C0038BD0068FFF7A0FF2268936948
:1048400043F4006393612268936923F48063936166
:1048500022689369296943EA01239361E7E70068C5
:10486000FFF7FAFD2268D36943F00803D361226899
:10487000D36923F00403D3612268D36929690B4308
:10488000D361D4E70068FFF719FE2268D36943F4C7
:104890000063D3612268D36923F48063D361226803
:1048A000D369296943EA0123D361C0E70220C1E744
:1048B00010B401F01F01012303FA01F4036A23EA93
:1048C00004030362036A8A40134303625DF8044BE6
:1048D000704700000A46C9B990F83E30DBB213F1C8
:1048E000FF3318BF0123002B40F08A8010B54ABB6C
:1048F000022380F83E300C2A39D8DFE802F0333842
:1049000038385F383838653838386B00042909D0B2
:1049100008290FD090F84130DBB213F1FF3318BFF4
:104920000123E0E790F83F30DBB213F1FF3318BF0B
:104930000123D8E790F84030DBB213F1FF3318BF02
:104940000123D0E7042A05D0082A07D0022380F8E3
:104950004130D0E7022380F83F30CCE7022380F8D3
:104960004030C8E70168CB6843F00203CB601146D2
:10497000044601220068FFF79BFF2368224A934206
:104980002ED02368204A93422FD0B3F1804F2CD0F1
:10499000A2F57C42934228D002F58062934224D053
:1049A00002F58062934220D002F59A3293421CD0E5
:1049B0001A6842F001021A60002020E00168CB680A
:1049C00043F00403CB60D2E70168CB6843F00803EF
:1049D000CB60CCE70168CB6843F01003CB60C6E73F
:1049E0005A6C42F400425A64CBE79A6802F007021C
:1049F000062A07D01A6842F001021A60002010BD92
:104A0000012070470020FAE70000014090F83C3098
:104A1000012B33D030B4012380F83C30022380F8DE
:104A20003D3003685C689D6824F070040A68224386
:104A30005A600368124A934212D0B3F1804F0FD0EC
:104A4000A2F57C4293420BD002F58062934207D0DC
:104A500002F58062934203D002F59A32934204D168
:104A600025F080054A6815439D60012380F83D309C
:104A7000002380F83C30184630BC70470220704755
:104A800000000140704770470268D36823F0C003FC
:104A9000D360202380F83D3070470268D36823F448
:104AA0009073D3600268536923F001035361036B71
:104AB000012B05D0202380F83E300023036370478C
:104AC0000268D36823F01003D360F3E790F83D3019
:104AD000DBB2212B27D18368B3F5805F16D0036A40
:104AE0005A1C02621A7803685A60C38C013B9BB25D
:104AF000C384D3B90268D36823F08003D36002680B
:104B0000D36843F04003D360002070470369002B53
:104B1000E5D1036A1B880268C3F308035360036A84
:104B200002330362E1E70220704700207047000073
:104B30002DE9F04B04460268136923F44053C16821
:104B40000B43136183680269134342691343C269CB
:104B50001A430168CB6823F4164323F00C03134374
:104B6000CB600268536923F4407381690B4353613E
:104B700003683A4A934206D002F58062934202D01B
:104B8000FFF792F801E0FFF79FF8E369B3F5004FF4
:104B900030D04FF00009061849EB090716EB000B5F
:104BA00047EB090C4FEACC0343EA5B734FEACB02B5
:104BB00093469C4663689A009B0F10EB0B0049EBF1
:104BC0000C01FCF78BFB264DA5FB0032510964223A
:104BD00002FB110213013233A5FB03235B0903F02F
:104BE000F00202EB011203F00F03216813448B6003
:104BF000BDE8F08B83464FF0000C06184CEB0C0719
:104C000016EB000847EB0C094FEAC90343EA587357
:104C10004FEAC8029046994662680021921841EB1B
:104C200001031BEB08004CEB0901FCF757FB0C4D93
:104C3000A5FB00325109642202FB1102D30032337A
:104C4000A5FB03235B095A0002F4F87202EB011280
:104C500003F00703216813448B60C9E7001001408B
:104C60001F85EB512DE9F04105460F461646984643
:104C7000069C2B681B6837EA03030CBF0123002343
:104C8000B3421DD1B4F1FF3FF3D02CB1FCF74CFD82
:104C9000A0EB0800A042ECD92A68D36823F4D073B3
:104CA000D3602A68536923F001035361202385F8F8
:104CB0003D3085F83E30002385F83C30032000E08D
:104CC0000020BDE8F08158B310B5044690F83D309F
:104CD0000BB3242384F83D302268D36823F40053B7
:104CE000D3602046FFF724FF2268136923F4904322
:104CF00013612268536923F02A0353612268D36841
:104D000043F40053D36000202064202384F83D3016
:104D100084F83E3010BD80F83C3002F00BFBD8E741
:104D2000012070472DE9F04182B01E4690F83D30D9
:104D3000DBB2202B54D104460D469046002954D0B6
:104D4000002A54D090F83C30012B52D0012380F837
:104D50003C3000230364212380F83D30FCF7E4FC61
:104D60000746A4F82480A4F82680A368B3F5805FE2
:104D700005D04FF00008002384F83C3011E023698F
:104D800013B14FF00008F6E7A8460025F3E738F81E
:104D9000023B2268C3F308035360E38C013B9BB2E0
:104DA000E384E38C9BB273B100963B4600228021E2
:104DB0002046FFF757FFF0B9002DE8D015F8012B7A
:104DC00023685A60E9E700963B46002240212046CE
:104DD000FFF748FF034680B9202284F83D2000E019
:104DE0000223184602B0BDE8F0810123F9E7012350
:104DF000F7E70223F5E70323F3E70323F1E770471F
:104E000008B50168CB6823F04003CB60202380F80D
:104E10003D30FFF7F4FF002008BD7047704710B524
:104E2000846B23685A6994F83D30DBB2212B10D093
:104E300023685A6902F0400294F83E30DBB2222B1C
:104E400011D0236C43F0100323642046FFF7E6FFE4
:104E500010BD02F08002002AEAD00023E38420463D
:104E6000FFF712FEE4E7002AEBD00023E38520469B
:104E7000FFF713FEE5E708B5806B0023C385C38405
:104E8000FFF7CCFF08BD704790F83E30DBB2222B15
:104E900050D18368B3F5805F30D0826AB3F5805F0C
:104EA00004D0002B37D10369002B34D103685B6831
:104EB0001370836A01338362C38D013B9BB2C38548
:104EC000002B39D110B504460268D36823F02003C3
:104ED000D3600268D36823F48073D3600268536997
:104EE00023F001035361202380F83E30036B012B34
:104EF00017D001F095FB0020206310BD0269002A45
:104F0000CBD1826A03685B68C3F308031380836AAA
:104F100002338362D0E703685B6803F07F0313709A
:104F2000C7E70268D36823F01003D360818DFFF7D1
:104F3000AAFFE0E7022070470020704730B583B039
:104F4000044602681368D068516913F00F0505D153
:104F500013F0200F02D010F0200F56D1002D6AD090
:104F600011F0010102D110F4907F64D013F0010F11
:104F700006D010F4807F03D0226C42F0010222643C
:104F800013F0040F04D019B1226C42F00202226423
:104F900013F0020F04D019B1226C42F00402226413
:104FA00013F0080F07D010F0200F00D119B1226CB8
:104FB00042F008022264226C002A4BD013F0200F2A
:104FC00002D010F0200F24D123685B6903F0400366
:104FD000226C12F0080F00D13BB32046FFF75DFDB5
:104FE00023685A6912F0400F1BD05A6922F0400220
:104FF0005A61A36B8BB14E4A1A65A06BFDF72DF871
:1050000040B3A06B036D984724E02046FFF73CFFB8
:1050100020E02046FFF738FFD6E72046FFF7FEFEE8
:1050200018E02046FFF7FAFE14E02046FFF7F6FEF0
:10503000002323640EE0216B01290DD013F0800FB3
:1050400002D010F0800F6AD113F0400F02D010F0A0
:10505000400F68D103B030BD13F0100FEED010F048
:10506000100FEBD000230193136801935368019351
:10507000019B536913F0400F30D0A16B0B685B6844
:105080009BB2002BE6D0A08D9842E3D9E385CB6993
:10509000B3F5807F1AD0D36823F48073D36022687D
:1050A000536923F0010353612268536923F04003DD
:1050B0005361202384F83E30002323632268D368A1
:1050C00023F01003D360A06BFCF77DFFA18DE38D6F
:1050D000C91A89B22046FFF7D6FEBBE7A18DE38D42
:1050E000C91A89B2E38D9BB2002BB3D00029B1D08D
:1050F000D36823F49073D3602268536923F00103CB
:105100005361202384F83E30002323632268D36850
:1051100023F01003D3602046FFF7B5FE9AE7204640
:10512000FFF7D4FC96E72046FFF76AFE92E700BF40
:10513000774E000808B5806B036B012B02D0FFF798
:105140006CFE08BD818D4908FFF79DFEF9E708B5A3
:10515000836B0268126812F4807F16D10022DA8510
:105160001968CA6822F48072CA6019684A6922F014
:1051700001024A6119684A6922F040024A6120220C
:1051800083F83E201A6B012A06D01A6B012A09D037
:10519000184601F045FA08BD1968CA6822F01002E5
:1051A000CA60F2E7998D1846FFF76DFEF3E700003D
:1051B00030B583B0044613468162A285002505649C
:1051C000222280F83E20826B1448D063A26B1448E0
:1051D0001064A26B1348D064A26B156520680A4660
:1051E000011DA06BFCF7BAFE019523681A680192B5
:1051F0005A680192019A84F83C50DA6842F480724D
:10520000DA602268536943F00103536122685369ED
:1052100043F040035361284603B030BD4F510008AE
:10522000355100081F4E000808B590F83E30DBB23B
:10523000202B0DD171B17AB190F83C30012B0DD0FB
:10524000012380F83C3000230363FFF7B1FF00E047
:10525000022008BD0120FCE70120FAE70220F8E760
:10526000F0B490ED007AF0EE476A00242746264617
:1052700008E0F4EEE67AF1EE10FA02DDA7B2F0EE05
:10528000676A0134A1420FD900EB8405D5ED007A9D
:10529000F4EEC77AF1EE10FAEBDD3746A6B2F0EE87
:1052A000476AB0EE677AECE782ED007A1E80049BD5
:1052B000C3ED006A059B1F80F0BC70470023DFED43
:1052C000097A06E000EB830292ED007A77EE877AA6
:1052D00001338B42F6D307EE101AB8EE470A87EE79
:1052E000800A70470000000070B510EE904A11EE81
:1052F000106A10EE100AFBF737F90022144BFBF787
:105300008BF9FBF739FC05B22046FBF72DF900229B
:105310000F4BFBF781F9FBF72FFC04B23046FBF78C
:1053200023F900220A4BFBF777F9FBF725FC00B2C3
:10533000C5F30722074B1A705D70C4F307229A70F9
:10534000DC70C0F307221A71587101229A7170BD86
:10535000000024408039002038B505460C46FFF790
:10536000ADFF00239FED0E7A0AE005EB8302D2ED3C
:10537000007A77EEC07A67EEA77A37EE277A0133A4
:10538000A342F2D307EE904AF8EE677AC7EE277A87
:1053900017EE900A03F02CFF00EE100A38BD00BF94
:1053A0000000000008B52DED048B4FF48071154806
:1053B000FFF7D2FFF0EE408A4FF480711248FFF7FA
:1053C000CBFFB0EE409A4FF480711048FFF7C4FF56
:1053D000B0EE408A4FF480710D48FFF7BDFF78EEC4
:1053E000898A38EE288A30EE088AF5EE007A68EE6F
:1053F000277A17EE900A03F0EBFC00EE100ABDECE2
:10540000048B08BD1404002014080020140C002094
:1054100014100020F8B506460D4614461046FBF75A
:1054200091F80022094BFBF7F7F8FBF7CDFB80B2B0
:105430008700241AA4002246F119284604F038FFF8
:105440003A463146281904F033FFF8BD0000E03F2A
:105450002DE9F04F2DED028B89B006460D469046A2
:105460009946BDF850B014461046FBF76BF8002281
:10547000BD4BFBF7D1F803F0CBFBFBF7A5FB1FFA05
:1054800080FAAAEB0B0A1FFA8AFA4FEA4B039BB287
:1054900001339BB20393002119E08A004B00B0183E
:1054A000D0F800E0B148CF0000EB070CCCF800E0EA
:1054B0002A44D2F800C0AE4A1744C7F800C00133EE
:1054C0009B0018440027076013441F6001314746C2
:1054D0008845E2D8A74D01230022A449284602F0BE
:1054E0009DFD01230022A249284602F097FD414676
:1054F00008E08D009D4A2A44002010609C4B2B44FC
:1055000018600131B1EB440FF3D3002511E0A9007D
:10551000964A0A44D2ED007A67EE877AC2ED007AA5
:10552000934B0B44D3ED007A27EE877A83ED007A14
:105530000135AF4243D9A9008C4A0A4492ED007A62
:105540008B4B0B44D3ED007A27EE077A67EEA77AF0
:1055500077EE277A17EE900A03F04AFE8649DFEDD0
:10556000877A07EE100A77EE277A17EE900A03F093
:10557000A9FCF7EE007A07EE100A87EE877AA5F10C
:105580001503122BC3D9AE00784C34442068FAF7C7
:10559000EBFF73A3D3E90023FBF73EF8FBF734FBE3
:1055A0002060734C34442068FAF7DEFF6CA3D3E923
:1055B0000023FBF731F8FBF727FB2060B8E7002456
:1055C0004D4644E066006A4AE100531893ED008AB4
:1055D000664B194491ED007A68EE078A06F10109DD
:1055E0004FEA89010A44D2ED007A0B44D3ED006AF8
:1055F00027EEA66A78EE868A28EE668A67EE277A14
:1056000038EE278A28EEA87A68EE087A77EE277AAD
:1056100017EE900AFAF7A8FF03F07AFBFBF7F4FA0B
:1056200007EE900AF5EE407AF1EE10FA01D1DFEDC7
:10563000547A88EEA77A534B03EB860686ED007A00
:1056400088EE277A03EB890989ED007A0134A742B5
:1056500031D9002DB6D0012DF8D163004448E200C5
:10566000811891ED006A41498E1896ED007A26EE78
:10567000075A01339B001844D0ED007A1944D1ED4C
:10568000006A67EEA65A75EE255A66EE666A67EE00
:10569000277A76EEA77A07EE108AB8EE477AC5EE3B
:1056A000876A38490A44C2ED006AC7EE876A0B442C
:1056B000C3ED006ACAE701231A4632492D4802F0B9
:1056C000ADFC002308E02F4A02EBC30211682E4A0A
:1056D00002EB8302116001339F42F4D8294C424609
:1056E00021462948FFF796FE05AB019306AB0093D0
:1056F0000DF1160307AA039904EB8A00FFF7B0FD2A
:10570000BDF81600BDF81430C31A07EE903AF8EE53
:10571000E77AF0EEE77A07EE10BAB8EE477AC7EE0E
:10572000876AF7EE007AF4EEE76AF1EE10FA01DD2F
:10573000F0EE676A9DED076A9DED067A36EE477AD0
:10574000C7EE067A67EEA67A104BC3ED007AA0EB9F
:105750000B0000B209B0BDEC028BBDE8F08F00BFBA
:105760009A9999999999B93F0000E03F3024002017
:105770002C180020E8E10008CDCC4C3FCCBC8C2B91
:1057800000008000342C00202C2000201418002061
:105790002DE9F04383B08846114699460D9CBDF82B
:1057A0002850BDF82C60BDF83070009733462A466B
:1057B000FFF74EFE2060009733462A464946404692
:1057C000FFF746FE606003B0BDE8F0832DE9F041CD
:1057D0002DED028B8CB000232DE0724A52F823206D
:1057E00007EE902A9A0070491144F8EEE77AC1ED6D
:1057F000007A6E4951F8231007EE901A6C49114453
:10580000F8EEE77AC1ED007A6A4951F8231007EE05
:10581000901A69491144F8EEE77AC1ED007A6749B8
:1058200051F8231007EE901A65490A44F8EEE77A1A
:10583000C2ED007A0133FF2BCFD95B4D614C4FF4A1
:1058400080732A462146284602F0AAFC584E4FF49F
:10585000807332462146304602F0A2FC564F4FF488
:1058600080733A462146384602F09AFCDFF85081B0
:105870004FF4807342462146404602F091FCFFF708
:1058800091FDF0EE408A07AB0393052302930023BA
:1058900001934FF48073009343463A4631462846BD
:1058A000FFF776FFDDED077AF8EEE77A17EE901A4C
:1058B000DDED087AF8EEE77A17EE900A03F086FA43
:1058C000DFED417A07EE100A67EE277A9FED3F7A07
:1058D00087EE878AB5EEC08AF1EE10FA1ED43C4BF3
:1058E000D3ED007A3B4B93ED007AF4EE477AF1EE7C
:1058F00010FA18D1364BD3ED007AF4EEE87AF1EED7
:1059000010FA21DC344B93ED007ADFED347AB4EEFB
:10591000E77AF1EE10FA14D5314C16E0DFED317A6A
:1059200038EE278ADBE717EE900AFAF71DFE0246EB
:105930000B462D4805F0D8F9254B1A68254B1A60FF
:10594000D8E718EE104A00E0254CB0EE681AF0EEE9
:10595000480A00EE104AFFF7C7FC2046FAF704FE9B
:1059600006460F461A4B1868FAF7FEFDCDE904010A
:1059700018EE900AFAF7F8FDCDE9020118EE100AC8
:10598000FAF7F2FDCDE9000132463B46174805F033
:10599000ABF9174805F01CFA20460CB0BDEC028BA1
:1059A000BDE8F081EC3A002014040020944B002064
:1059B0001408002040610020140C002040650020E5
:1059C000141000201414002000003443DB0F494061
:1059D0000C0200201002002014180020CDCCCC3D79
:1059E000000080BF0000B44340DF000860DF000813
:1059F0003CE1000810B52DED028B08EE100A0024E2
:105A000019E007EE904AB8EE677ADFED177A67EE95
:105A1000277A17EE900A02F07FFBF6EE007A07EE87
:105A2000100A27EE277A114B03EB840377EEC77A2F
:105A3000C3ED007A0134FF2CE3D900230FE007EE19
:105A4000903AF8EE677A67EE887A094A02EB8302A9
:105A50009FED087A67EE877AC2ED007A01337F2BDB
:105A6000EDD9BDEC028B10BDDB0FC93C1414002036
:105A7000140200200000803B70B52DED028B84B035
:105A80006348FBF7B5FF00250095012301930293BE
:105A90002C4615E05F4805F09BF919E05E4805F0DB
:105AA00097F91AE05D4805F093F91DE05848FCF7B6
:105AB00020F880B2C0F580500544ADB20134A4B2E4
:105AC000092C1BD869465248FCF716F80028E1D18A
:105AD0004F48FBF709FF0028E0D141F288314C48DC
